:03000000020B747C
:0C0B7400787FE4F6D8FD758116020BBBFB
:0B0D6A00EF1FAC0670011E4C70F6225B
:100D46007F3C120C5D7F0C120C5D7F01120C5D7FE7
:040D560006020C5D28
:100CF300D2A17FC87E00120D6AC2A07FC87E0012F7
:100D03000D6AD2A27FC87E00120D6A85800B7FC850
:100D13007E00120D6AC2A27FC87E00120D6AC2A1B4
:090D23007FC87E00120D6AAF0BBF
:010D2C0022A4
:020C5D008F09FD
:100C5F00120CF38F0A530A807FC87E00120D6AE5CB
:100C6F000A70EDC2A17FC8FE120D6AC2A07FC87EB6
:100C7F0000120D6AD2A27FC87E00120D6A8509800C
:100C8F007FC87E00120D6AC2A27FC87E00120D6A55
:090C9F00D2A17FC87E00020D6A9B
:020CA8008F09B2
:100CAA00120CF38F0A530A807FC87E00120D6AE580
:100CBA000A70EDC2A17FC8FE120D6AD2A07FC87E5B
:100CCA0000120D6AD2A27FC87E00120D6A850980C1
:100CDA007FC87E00120D6AC2A27FC87E00120D6A0A
:090CEA00D2A17FC87E00020D6A50
:100C00007580FF7F0A7E00120D6A120D467F0A7EF4
:100C100000120D6A7F85120C5D7F25120CA87F0AD9
:100C20007E00120D6A7F80120C5D7F0A7E00120D1D
:100C30006A120D5A120D2D120AC8E4F508C3E50810
:100C400094057480948050DD74112508F8E6FF1235
:0D0C50000CA87FE87E03120D6A050880E005
:080D750006110000000000005F
:100D5A00759D04E4F5BD75BC807F787E05020D6A39
:100D2D00E4F5BD75BC827F787E05120D6A75BC8AAF
:090D3D00E5BC30E4FBE4F5BC2246
:100AC800AFBDEF75F0C4A4FFC374509FFF74C39506
:100AD800F0AB07FA750C00750B50750A437509479A
:100AE800E4F510F50FF50EF50DAE02AD07AC0612E4
:100AF80009ABAB0CAA0BA90AA8091209098F108E19
:100B08000F8D0E8C0DE4FFFE7D7A7C44AB10AA0F8E
:100B1800A90EA80D1208001209E4AB07AA067C0367
:100B28007DE8120A65EF2430F5117C007D64AF037F
:100B3800AE02120A657C007D0A120A65ED2430F5C2
:100B4800127C007D0AAF03AE02120A657C007D0AA2
:100B5800120A65ED2430F51375142EAE02AF037C2E
:0B0B6800007D0A120A65ED2430F5152F
:010B7300225F
:10080000EC4D6011E8497017ED33EC3304600DE4F2
:10081000FCFFFEFD22E933E8330470F8020A5012AF
:100820000A1B58046009E4CC2481500628500902B0
:100830000A5A284003020A57C0E0EB4A7044B980C4
:1008400006D0E0FB020A46EF4E701CBD8008EBFFAD
:10085000EAFEE9FD80EBE98DF0A4FEE5F00208E98F
:10086000E9CDF9EAFEEBFFEF89F0A4FCE5F0CE89D3
:10087000F0A42EFFE435F0CD89F0A42DFEE435F090
:100880008067EF4E7005BD80D780C3EF8BF0A4ACBE
:10089000F0EE8BF0A42CFCE435F0F8EF8AF0A42CF9
:1008A000E5F038FCE433CB8DF0A42CFCE5F03BF80C
:1008B000EE8AF0A42CFCE5F038F8E433CF89F0A4FC
:1008C0002CFCE5F038CF3400CE89F0A42FFFE5F002
:1008D0003EFEE433C98DF0A42EFEE5F039CD8AF05A
:1008E000A42FFFE5F03EFEE43DFD33D0E0FB5007D2
:1008F0000BBB000F020A5AEC2CFCEF33FFEE33FE69
:06090000ED33FD020A3296
:10090600020A5AEC5D046005E859047003020A50B5
:10091600120A1B580460F6EC4860F2EC7004FDFE07
:10092600FF22C860DB2481C85009C39860025006C4
:10093600020A579850CAF582E9294B4A7005AB82DC
:10094600020A4675F0007C1A7880C3EF9BEE9AED9A
:1009560099400DC3EF9BFFEE9AFEED99FDE842F03C
:10096600DC23ACF0D0E0FFD0E0FED0E0FDAB82208F
:10097600E7101BEB60BAEC2CFCEF33FFEE33FEED19
:1009860033FD020A32E803F830E705C0F075F000DF
:10099600EF2FFFEE33FEED33FD40B830E7C280AAFD
:1009A60075F020800E75F010800575F0087D007ECC
:1009B600007F003392D530D503120ABAEC334010CB
:1009C600EF33FFEE33FEED33FDEC33FCD5F0ED22D5
:0E09D600E5F0247EA2D513CC92E7CDCEFF2211
:1009E400EDD2E7CD33EC3392D524814006E4FFFE0B
:1009F400FDFC22FCE4CFCECDCC24E0501174FF806A
:100A0400EDC3CC13CCCD13CDCE13CECF13CF047006
:070A1400F030D5DE020ABA42
:100A1B00E9D2E7C933E833F892D5EDD2E7CD33EC21
:070A2B0033FC5002B2D5229A
:100A3200EC30E7100FBF000C0EBE00080DBD000425
:100A42000BEB6014A2D5EB13FCED92E7FD2274FFD1
:100A5200FCFDFEFF22E480F8A2D574FF13FC7D802A
:030A6200E480EF3E
:100B8000020C00E493A3F8E493A34003F68001F27F
:100B900008DFF48029E493A3F85407240CC8C33376
:100BA000C4540F4420C8834004F456800146F6DF45
:100BB000E4800B0102040810204080900D75E47E53
:100BC000019360BCA3FF543F30E509541FFEE4933A
:100BD000A360010ECF54C025E060A840B8E493A301
:100BE000FAE493A3F8E493A3C8C582C8CAC583CA2C
:100BF000F0A3C8C582C8CAC583CADFE9DEE780BEE4
:010D7D000075
:100A6500BC000BBE0029EF8DF084FFADF022E4CC75
:100A7500F875F008EF2FFFEE33FEEC33FCEE9DEC3E
:100A8500984005FCEE9DFE0FD5F0E9E4CEFD22ED84
:100A9500F8F5F0EE8420D21CFEADF075F008EF2FCE
:100AA500FFED33FD4007985006D5F0F222C398FDBF
:050AB5000FD5F0EA225C
:0E0ABA00C3E49FFFE49EFEE49DFDE49CFC224D
:00000001FF
