:03000000020003F8
:0C000300787FE4F6D8FD75811102004AF8
:0B029400EF1FAC0670011E4C70F6223C
:100270007F3C12013C7F0C12013C7F0112013C7F4C
:040280000602013C35
:10021D00D2A17FC87E00120294C2A07FC87E0012B8
:10022D000294D2A27FC87E001202948580117FC8ED
:10023D007E00120294C2A27FC87E00120294C2A157
:09024D007FC87E00120294AF117B
:010256002285
:02013C008F0F23
:10013E0012021D8F105310807FC87E00120294E5AC
:10014E001070EDC2A17FC8FE120294C2A07FC87EBD
:10015E0000120294D2A27FC87E00120294850F80F4
:10016E007FC87E00120294C2A27FC87E0012029443
:09017E00D2A17FC87E00020294A8
:020187008F0FD8
:1001890012021D8F105310807FC87E00120294E561
:100199001070EDC2A17FC8FE120294D2A07FC87E62
:1001A90000120294D2A27FC87E00120294850F80A9
:1001B9007FC87E00120294C2A27FC87E00120294F8
:0901C900D2A17FC87E000202945D
:10008F007580FF7F0A7E001202941202707F0A7E33
:10009F00001202947F8012013C7F0A7E00120294AC
:1000AF007F8012013C7F0A7E00120294120284129A
:1000BF0002571201D2E4F50EC3E50E940474809436
:1000CF008050DD7408250EF8E6FF1201877FE87E69
:0800DF0003120294050E80E0FB
:08029F00060800000000000049
:10028400759D04E4F5BD75BC807F787E05020294FB
:10025700E4F5BD75BC827F787E0512029475BC8A71
:09026700E5BC30E4FBE4F5BC2227
:1001D200AFBDEF75F0C4A4FBAAF07C277D10FFAE83
:1001E200021200E7EF2430F50875092E7C037DE842
:1001F200AF03AE021200E77C007D0A1200E7ED2495
:1002020030F50AAE02AF037C007D641200E77C0089
:0A0212007D0A1200E7ED2430F50B21
:01021C0022BF
:10000F0002008FE493A3F8E493A34003F68001F278
:10001F0008DFF48029E493A3F85407240CC8C333F2
:10002F00C4540F4420C8834004F456800146F6DFC1
:10003F00E4800B010204081020408090029FE47EB0
:10004F00019360BCA3FF543F30E509541FFEE493B6
:10005F00A360010ECF54C025E060A840B8E493A37D
:10006F00FAE493A3F8E493A3C8C582C8CAC583CAA8
:10007F00F0A3C8C582C8CAC583CADFE9DEE780BE60
:0102A7000056
:1000E700BC000BBE0029EF8DF084FFADF022E4CCFD
:1000F700F875F008EF2FFFEE33FEEC33FCEE9DECC6
:10010700984005FCEE9DFE0FD5F0E9E4CEFD22ED0B
:10011700F8F5F0EE8420D21CFEADF075F008EF2F55
:10012700FFED33FD4007985006D5F0F222C398FD46
:050137000FD5F0EA22E3
:00000001FF
