:0300000002089B58
:0C089B00787FE4F6D8FD758107020800A4
:10087B00000900010003000200060004000C000840
:10088B000008000C00040006000200030001000930
:0B08A700EF1FAC0670011E4C70F62223
:10080000E4FBFAE4FDEDC3940874809480501BED82
:1008100025E0247BF582E43408F583740193F5B078
:100820007F587E021208A70D80DB0BBB00010AE493
:10083000B503D0EAB402CC7FD07E071208A7E4FA51
:10084000FBE4FDEDC3940874809480501BED25E01B
:10085000248BF582E43408F583740193F5B07F406E
:100860007E061208A70D80DB0BBB00010AE4B5036E
:0A087000D0EAB402CCE4F5B0FEFFBC
:01087A00225B
:00000001FF
