:03000000020CED02
:0C0CED00787FE4F6D8FD758134020D34E8
:0B100000EF1FAC0670011E4C70F622C2
:0A0F8000022F000004312020202081
:100FAF00D2957F3C7E00121000C2957FBC7E02124C
:100FBF001000D2957F5A7E00121000A295E433FFE5
:0C0FCF00EF70FD7F4A7E01121000D295E9
:010FDB0022F3
:100ED300E4F52DF52E752D08D3E52D94007480943B
:100EE300804028E52E13F52EC2957F067E00121052
:100EF30000D2957F067E00121000309503432E80AA
:0D0F03007F3C7E00121000152D80CDAF2E1A
:010F100022BE
:020F4B008F2DE8
:100F4D00E4F52E752E08D3E52E9400748094804020
:100F5D0021C2957F067E00121000E52D139295E5B6
:100F6D002DC313F52D7F3C7E00121000D295152E4A
:020F7D0080D41E
:010F7F00224F
:100D7900E4F527F528F52CF52BF52AF529C2AF124C
:100D89000FAF7FCC120F4B7F44120F4B3095FD12E2
:100D99000FAF7FCC120F4B7FBE120F4B120ED38FAA
:100DA90027120ED38F28752F008F30E5307530004C
:100DB900F52FE5274230E4AC2FAD30120A03E4FBEE
:100DC900FA7980783D1208F88F2C8E2B8D2A8C2980
:100DD900E4FFFE7D207C41AB2CAA2BA92AA829126D
:100DE90008F8E4FBFAF9783F120807120A3C8E2F3B
:020DF9008F3039
:010DFB0022D5
:100E9200AE2FAF307C007D64120ABDEF2430F531F5
:100EA200AE2FAF307C007D64120ABD7E007F0ACF78
:100EB200CDCFCECCCE120ABDEF2430F53275332E13
:100EC200AE2FAF307C007D0A120ABDED2430F5341E
:010ED20022FD
:100FDC007F3C120DFC7F0C120DFC7F01120DFC7F6F
:040FEC0006020DFCF0
:100F1100D2A17FC87E00121000C2A07FC87E00123D
:100F21001000D2A27FC87E001210008580297FC8E0
:100F31007E00121000C2A27FC87E00121000C2A162
:090F41007FC87E00121000AF29E8
:010F4A002284
:020DFC008F273F
:100DFE00120F118F285328807FC87E00121000E535
:100E0E002870EDC2A17FC8FE121000C2A07FC87E5E
:100E1E0000121000D2A27FC87E001210008527801B
:100E2E007FC87E00121000C2A27FC87E0012100082
:090E3E00D2A17FC87E0002100061
:020E47008F27F3
:100E4900120F118F285328807FC87E00121000E5E9
:100E59002870EDC2A17FC8FE121000D2A07FC87E03
:100E690000121000D2A27FC87E00121000852780D0
:100E79007FC87E00121000C2A27FC87E0012100037
:090E8900D2A17FC87E0002100016
:100FF000000900010003000200060004000C0008C4
:100F8A00062074656D703A000C0874656D702074E3
:100F9A006F20686F74000C143031323030313131C7
:040FAA0020343500BA
:100B2000C296D2977580FF7F0A7E00121000120FC6
:100B3000DC7F0A7E001210007F80120DFC7F0A7E8F
:100B400000121000E4F52674202526F8E6FF600761
:100B5000120E47052680F07F89120DFC7FDF120EF2
:100B6000477F43120E477FC0120DFC7F0A7E0012A2
:100B70001000E4F52674142526F8E6FF6007120E2F
:100B800047052680F07F85120DFC120D79120E921A
:100B9000E4F526C3E52694047480948050157431DE
:100BA0002526F8E6FF120E477F647E00121000052E
:100BB0002680E0D3E5309418E52F940140C7E53056
:100BC00064527004E52F640360BB7580FFC2977F99
:100BD0000A7E00121000120FDC7F0A7E0012100045
:100BE0007F80120DFC7F0A7E00121000E4F526744F
:100BF000082526F8E6FF6007120E47052680F0124A
:100C00000D79D290D296E4F526C3E5269408748037
:100C10009480501EE52625E024F0F582E4340FF59B
:100C200083E4740193F5B07F8A7E021210000526DA
:100C300080D7C290C296E4F526C3E5269408748056
:100C40009480501EE52625E024F0F582E4340FF56B
:100C500083E4740193F5B07F8A7E021210000526AA
:100C600080D7E4F526C3E526940874809480501E4E
:100C7000E52625E024F0F582E4340FF583E47401E1
:100C800093F5B07F8A7E02121000052680D7E4F526
:100C9000B0D3E5309418E52F94014003020BFFC256
:100CA00096D2977580FF7F0A7E00121000120FDC2B
:100CB0007F0A7E001210007F80120DFC7F0A7E00EA
:100CC000121000E4F52674202526F8E6FF600712CE
:100CD0000E47052680F07F89120DFC7FDF120E473C
:0D0CE0007F43120E477FC0120DFC020B85F2
:10080000020AA8E86480F8E933E83360110460F074
:10081000ED33EC337009E8FCE9FDEAFEEBFF22045E
:1008200060DED3EB9FEA9EE99DE8C2E78CF0C2F759
:1008300095F0400CE8CCF8E9CDF9EACEFAEBCFFB25
:10084000120A7385D0F05804700320D5B3E8047001
:10085000075002B2D5020AB292D5EC0460F7E4CC9C
:10086000C0E0C398F8603B94186008400DD0E0FBEE
:10087000020A8AE4FBFAC9FC8028E830E406E4C9ED
:10088000FBE4CAFCE830E305E4C9CACBFCE8540742
:100890006010F8C3E913F9EA13FAEB13FBEC13FC4D
:1008A000D8F130F52FC3E49CFCEF9BFFEE9AFEEDF0
:1008B00099FDD0E0FBEF4E4D4C701222DB03020A93
:1008C000AFEC2CFCEF33FFEE33FEED33FDED30E704
:1008D000EB020A8AEF2BFFEE3AFEED39FDD0E0FB8A
:1008E00050130BBB0003020AB2ED13FDEE13FEEF33
:0808F00013FFEC13FC020A8A5D
:1008F800EC4D6011E8497017ED33EC3304600DE4FA
:10090800FCFFFEFD22E933E8330470F8020AA8125E
:100918000A7358046009E4CC24815006285009025F
:100928000AB2284003020AAFC0E0EB4A7044B9801B
:1009380006D0E0FB020A9EEF4E701CBD8008EBFF5C
:10094800EAFEE9FD80EBE98DF0A4FEE5F00209E19D
:10095800E9CDF9EAFEEBFFEF89F0A4FCE5F0CE89DA
:10096800F0A42EFFE435F0CD89F0A42DFEE435F097
:100978008067EF4E7005BD80D780C3EF8BF0A4ACC5
:10098800F0EE8BF0A42CFCE435F0F8EF8AF0A42C00
:10099800E5F038FCE433CB8DF0A42CFCE5F03BF813
:1009A800EE8AF0A42CFCE5F038F8E433CF89F0A403
:1009B8002CFCE5F038CF3400CE89F0A42FFFE5F009
:1009C8003EFEE433C98DF0A42EFEE5F039CD8AF061
:1009D800A42FFFE5F03EFEE43DFD33D0E0FB5007D9
:1009E8000BBB000F020AB2EC2CFCEF33FFEE33FE18
:0609F800ED33FD020A8A46
:1009FE0075F020800E75F010800575F0087D007E74
:100A0E00007F003392D530D503120B12EC33401019
:100A1E00EF33FFEE33FEED33FDEC33FCD5F0ED227C
:0E0A2E00E5F0247EA2D513CC92E7CDCEFF22B8
:100A3C00EDD2E7CD33EC3392D524814006E4FFFEB2
:100A4C00FDFC22FCE4CFCECDCC24E0501174FF8011
:100A5C00EDC3CC13CCCD13CDCE13CECF13CF0470AE
:070A6C00F030D5DE020B1291
:100A7300E9D2E7C933E833F892D5EDD2E7CD33ECC9
:070A830033FC5002B2D52242
:100A8A00EC30E7100FBF000C0EBE00080DBD0004CD
:100A9A000BEB6014A2D5EB13FCED92E7FD2274FF79
:100AAA00FCFDFEFF22E480F8A2D574FF13FC7D80D2
:030ABA00E480EFE6
:100CF900020B20E493A3F8E493A34003F68001F2E6
:100D090008DFF48029E493A3F85407240CC8C333FB
:100D1900C4540F4420C8834004F456800146F6DFCA
:100D2900E4800B0102040810204080900F80E47ECB
:100D3900019360BCA3FF543F30E509541FFEE493BF
:100D4900A360010ECF54C025E060A840B8E493A386
:100D5900FAE493A3F8E493A3C8C582C8CAC583CAB1
:100D6900F0A3C8C582C8CAC583CADFE9DEE780BE69
:010FAE000042
:100ABD00BC000BBE0029EF8DF084FFADF022E4CC1D
:100ACD00F875F008EF2FFFEE33FEEC33FCEE9DECE6
:100ADD00984005FCEE9DFE0FD5F0E9E4CEFD22ED2C
:100AED00F8F5F0EE8420D21CFEADF075F008EF2F76
:100AFD00FFED33FD4007985006D5F0F222C398FD67
:050B0D000FD5F0EA2203
:0E0B1200C3E49FFFE49EFEE49DFDE49CFC22F4
:00000001FF
