:0300000002089063
:0C089000787FE4F6D8FD75810D0208D7D2
:10091C00000900010003000200060004000C00089E
:10092C000008000C0004000600020003000100098E
:04095300020801F4A1
:0C093C003EF583740193F580AF09AE080E
:0B094800EF1FAC0670011E4C70F62281
:1008000020902BE4F50CF50DE50D25E0FFE50C330C
:10081000FE741C2FF582740912093C050DE50D705C
:1008200002050CC39408E50C6480948040DA2091A2
:100830002BE4F50CF50DE50D25E0FFE50C33FE741A
:100840002C2FF582740912093C050DE50D70020587
:100850000CC39408E50C6480948040DA20920B74F9
:10086000642509F509E43508F508209393749C255F
:1008700009F50974FF3508F508C3E50994F4E5089E
:10088000940140030208007508017509F40208008C
:10089C00020800E493A3F8E493A34003F68001F26A
:1008AC0008DFF48029E493A3F85407240CC8C3335D
:1008BC00C4540F4420C8834004F456800146F6DF2C
:1008CC00E4800B0102040810204080900953E47E60
:1008DC00019360BCA3FF543F30E509541FFEE49321
:1008EC00A360010ECF54C025E060A840B8E493A3E8
:1008FC00FAE493A3F8E493A3C8C582C8CAC583CA13
:10090C00F0A3C8C582C8CAC583CADFE9DEE780BECA
:01095700009F
:00000001FF
